:020000041000EA
:1000000000B5324B212058609868022188439860DF
:10001000D860186158612E4B002199600221596106
:100020000121F02299502B49196001219960352056
:1000300000F044F80222904214D00621196600F024
:1000400034F8196E01211966002018661A6600F04E
:100050002CF8196E196E196E052000F02FF8012189
:100060000842F9D1002199601B49196000215960AB
:100070001A491B48016001219960EB211966A021F2
:10008000196600F012F800219960164914480160C1
:100090000121996001BC002800D000471248134993
:1000A000086003C880F30888084703B5996A0420EC
:1000B0000142FBD001200142F8D103BD02B5186610
:1000C0001866FFF7F2FF186E186E02BD00000240BE
:1000D000000000180000070000035F00212200005C
:1000E000F4000018222000A00001001008ED00E03C
:1000F00000000000000000000000000074B24E7A12
:1001000000200420F7010010CB010010CD010010E9
:10011000C9010010C9010010C9010010C901001077
:10012000C9010010C9010010C9010010CF01001061
:10013000C9010010C9010010D1010010D301001045
:10014000C1010010C1010010C1010010C101001067
:10015000C1010010C1010010C1010010C101001057
:10016000C1010010C1010010C1010010C101001047
:10017000C1010010C1010010C1010010C101001037
:10018000C1010010C1010010C1010010C101001027
:10019000C1010010C1010010C1010010C101001017
:1001A000C1010010C1010010C1010010C101001007
:1001B000C1010010C1010010C1010010C1010010F7
:1001C000EFF30580103800BE00BE00BE00BE00BECA
:1001D00000BE00BEF2EB887100A6001020A6001041
:1001E0003802001090A31AE71E481F49086006C88D
:1001F00081F3088810471D480068002801D019487D
:10020000F3E70DA40ECC002902D000F012F8F9E7B4
:100210001749184A002000E001C19142FCD116495B
:100220008847164988471649884700BEFDE701C937
:1002300001C29A42FBD3704720A60010C0000020E4
:10024000D816002038BC0010000004200000042054
:1002500038BC001000100420001004200000000032
:10026000704700000000000008ED00E0000000D032
:10027000D816002084B70020615B0010D102001066
:10028000595B0010F8B5C04610B5064C2378002B1A
:1002900007D1054B002B02D0044800E000BF01232A
:1002A000237010BD601A002000000000E4930010CD
:1002B000044B10B5002B03D00349044800E000BFF5
:1002C00010BDC04600000000641A0020E493001036
:1002D000F8B5D0258026002405F074FD2D061920E0
:1002E000B60401F02DFF0D486E6202F0A7FD01F08B
:1002F00027FA0B4FFA206E6102F0A0FD0134094885
:10030000AE6102F09BFD0521200003F0A7F9002952
:10031000F0D1380005F0A6FDECE7C046C4090000A6
:10032000E8930010EE020000E02040037047C04652
:10033000030010B5081E0ED0E02149038B4210D8EF
:10034000C91A8A4213D8002A03D00C49591804F05C
:100350003BF8012010BD002A07D1E022520393424E
:10036000F7D91900064805F005FE0020F2E719004C
:100370000448D21805F0FEFD0020EBE70000041051
:10038000F893001020940010F0B5C64607000D0049
:1003900000B5002930D0030528D1E0235B03984243
:1003A0002CD880211B1A49018B422DD38023DB02DC
:1003B000C418EFF3108872B6200008F0B1FF822352
:1003C000DB02FE18144BED1B9C4665448022200086
:1003D000291901345200FF3408F08AFFB442F5D1E4
:1003E00088F31088012080BCB846F0BD8022390017
:1003F0000A48520105F0BEFD0020F4E73900084824
:1004000005F0B8FD0020EEE742183900054805F078
:10041000B1FD0020E7E7C0460000FCFF4C9400104F
:10042000F893001020940010F0B5DE46454657467C
:100430004E46E0B58DB00500FFF776FF8023DB0167
:10044000984231D30121030BD81E98468C46AB4607
:10045000824619E0514660468024002300250A1A8E
:10046000E400A4185D41A10FAF000F4301204042FA
:10047000C117A600801979410C05000B044300D177
:100480000134644514D0A4460321614489464145A2
:10049000E0D35B4805F0E6FC00200DB0F0BCBB46A5
:1004A000B246A946A046F0BD564805F0DBFCF3E78E
:1004B0005D46280008220021203003F07FFF5423EE
:1004C000414601222B702972133B090A6B70697235
:1004D00005334146AB700D33EB7000232A712A734C
:1004E000220A6A74220C2C74AA74220E0134090C9C
:1004F000EA74220AA9726A754146220C6B71AB71CB
:10050000EB716B73AB73EB73AA756B760222AB76F0
:10051000EB764B46090EE9722C752A76240E180AE2
:10052000190C1A0EEC752B776877A977EA77364B9A
:100530001C68002C14D043464E469B1BA34200D996
:1005400023004B441C0A6C721C02240EAC721C0E5D
:100550002B72EC72994503D32C4805F083FC9BE782
:1005600020234C46EC540133E8540133E954013361
:10057000EA542900282202A803F026FF01235B4247
:1005800001201A00224902AC0CAE237801345340FA
:100590005A0803405B420B405A4053080240524203
:1005A0000A4053405A0803405B420B405A405308EC
:1005B000024052420A4053405A0803405B420B40FB
:1005C0005A405308024052420A4053405A080340DE
:1005D0005B420B405A405308024052420A405A4084
:1005E000A642D2D1D243242125236A54110AE954C8
:1005F000110C0133E954120E01330120EA544CE787
:10060000B09400108094001020630020DC9400104F
:100610002083B8EDF8B5244B45469846DE464E4655
:1006200057464246E0B59B68D66983469E422FD81E
:100630009F1BB3422CD0126A0025B2422FD21B4B13
:100640001B6899467B199A4602E00135AA451CD0E1
:100650003900280003F002F88B004B441A680C00A4
:10066000002AF2D1013A1A60481C390002F0F6FF64
:100670004346891919625B46012236191E600C4BEC
:1006800001201A700B4B1A7003E00B4805F0EAFBCF
:100690000020F0BCBB46B246A946A046F8BD9A422F
:1006A000CDD2951BCBE7C046F8620020F062002057
:1006B0007BB700207DB70020FC9400100B0070B5C4
:1006C000002A01D00021117001694A1C1CD01B0BAB
:1006D00023D0134AD4699568124A16688C4210D800
:1006E0008D420ED90A1B92009059421C0CD08442B4
:1006F0000DD885420BD9013B002B07D001008C425D
:10070000EED9094805F036FC0120404270BD074B88
:100710000200180005F02EFCF6E70800F6E7C046D8
:10072000F8620020F0620020149500102C95001053
:10073000F0B5DE4657464E464546E0B5844B97B089
:1007400001931B78002B4DD0824CA368E669994633
:10075000B34234D39E1BB6007F4B1A682369002B2B
:100760003DD080235B01904600259B467B4F0FE0E8
:1007700008033900FFF708FE002818D080235B012A
:100780009C4623690135E0449D4228D2A3689946DE
:10079000802200213800520103F010FE002E10D1FB
:1007A000E16869184945E3D36D4805F0E3FB002093
:1007B00017B0F0BCBB46B246A946A046F0BD002625
:1007C000CAE7B2465E4502D980235B019A4652468B
:1007D0004146380003F0F8FD5346F61AE0E70023DF
:1007E000019A13705F4B9A461B78002B3DD0594CF1
:1007F000A369002B36D05C4B8026984680235B0192
:1008000000259946554FB6010DE008033900FFF762
:10081000BBFD0028CBD080235B019C46A36901353A
:10082000E0449D421ED2802200213800520103F094
:10083000C5FD002E08D16169A36869189942E4D307
:10084000474805F097FBB2E7B3464E4502D98023EF
:100850005B019B465A464146380003F0B5FD5B46B6
:10086000F61AE8E7002352461370404B99461B786E
:10087000002B66D0374C02AD2B00220083CA83C305
:1008800083CA83C383CA83C3126829001A600CA871
:10089000282203F099FD012600230121344A1593F3
:1008A0000CA816AF76420378013073405E080B4007
:1008B0005B4213405E4073080E4076421640734020
:1008C0005E080B405B42134073405E080B405B4286
:1008D00013405E4073080E40764216405E40730837
:1008E0000E40764216405E4073080E407642164037
:1008F00073405E080B405B4213405E40B842D2D169
:10090000164B8022F7439846520100211800676277
:1009100003F054FD43460B9707CD07C307CD07C32C
:1009200007CD07C32A681A60A368002B0BD0414685
:100930000020FFF729FD002800D138E700234A46B0
:100940001370012034E70021054805F013FB2EE762
:100950007BB70020F8620020F0620020F032002017
:10096000509500107AB70020F04200207DB700209B
:100970002083B8EDF0B5C64600B58AB06C462000BD
:10098000FFF752FD00284BD0284D20002B0016C841
:1009900016C316C816C316C816C30268244E1A60BA
:1009A000AA68EC693068944232D8224B141B9846EE
:1009B0001B68A7009C4207D9390003F0E1FC00281E
:1009C0002AD0434630601C603A00002103F0F6FC58
:1009D000802200219201184803F0F0FC0123174AFD
:1009E000174C1370174A23701370174A1370FFF7D0
:1009F0009FFE002817D0A968EA6991420AD38A1A93
:100A0000124805F0B7FA00200AB080BCB846F0BD25
:100A10000027D9E70022F3E721000D4805F0AAFAE4
:100A200001204042F0E72070FAE7C046F86200205B
:100A3000F0620020F4620020F04200207DB7002028
:100A40007CB700207BB700207AB70020A495001067
:100A500074950010F0B5DE4657464E464546E0B563
:100A6000BD4BA1B000931B78002B07D0002021B014
:100A7000F0BCBB46B246A946A046F0BD0CAB180080
:100A80009946FFF7D1FC00283CD0B44C4A462300DD
:100A900023CA23C323CA23C323CA23C312681A60E9
:100AA000A368002B2AD08022AD4D002029005201DE
:100AB000FFF73EFC002825D002AE33002A0083CA8F
:100AC00083C383CA83C383CA83C312681A60AB68B3
:100AD0002A6898462B69696801936B69E8689A46A9
:100AE000AB69EF699C466B6A9B469E4B9A420CD061
:100AF0009D4805F0B7F9FFF73DFFB8E700219B4897
:100B000005F038FA01204042B1E70129F0D14B4607
:100B10009B684345ECD14B46DB689842E8D14B4695
:100B2000019A1B699342E3D14B465B695345DFD180
:100B30004B469B696345DBD14B46DB69BB42D7D152
:100B40000123884A31000292039316AB994628226A
:100B5000180003F039FC4B460020586201235B4229
:100B600001219C46A246824A4B4664461B5C0130EA
:100B70005C4063080C406442144063405C080B40D6
:100B80005B42134063405C080B405B421340634090
:100B90005C080B405B4213405C4063080C406442BD
:100BA00014405C4063080C40644214405C4063089D
:100BB0000C406442144063405C080B405B421340AD
:100BC0005C40A4462828CFD12300DB4354465B4534
:100BD0008ED1230007CE07C307CE07C307CE07C3B6
:100BE00032681A60634B9A461A68634B9B461E68CC
:100BF000474500D9A6E04346DB1B99469F00934238
:100C000000D8A2E03000390003F0BAFB061E00D184
:100C10009DE05B464A46186053461A603A00002140
:100C2000300003F0CBFB019B002B3ED08023B1466C
:100C30002A005B019A463D0000264F4643469146F6
:100C400012E08022080352014946FFF771FB002899
:100C500011D0002D13D180235B019C4623690136FE
:100C600067449E4220D2A368E16871189942E8D394
:100C70003E4805F07FF90023009A137042E7A8462A
:100C8000554502D980235B019846380042464946C3
:100C900003F09AFB4346ED1A80235B019C462369CF
:100CA000013667449E42DED34D468022334F0021F9
:100CB0003800920103F082FBA369002B37D0802318
:100CC0009B01984680235B0199462B0000264546F0
:100CD000984611E08022080352014146FFF728FBA5
:100CE0000028C8D0002D0DD180235B019C46A3694C
:100CF000013667449E421AD26169A368711899420D
:100D0000E8D3B5E7AA464D4502D980235B019A4650
:100D100038005246414603F057FB5346ED1A8023F4
:100D20005B019C46A369013667449E42E4D30023DD
:100D3000134A1370134A1370134A1370009A013345
:100D4000137093E60027920069E7920067E749462F
:100D50000E4805F00FF98EE77CB70020F8620020FE
:100D6000F032002054414653F4950010D095001005
:100D70002083B8EDF4620020F0620020F0420020F1
:100D80007DB700207BB700207AB700207495001053
:100D9000F0B557464546DE464E46E0B591B00700F1
:100DA0008846FFF757FE002817D1002F00D1E7E152
:100DB0003E782F2E13D00023002E08D114E05C1CA7
:100DC0003E5D002E15D0202C00D1D3E123002F2E24
:100DD000F5D13900CF4805F0CDF8002523E17E7824
:100DE00000230137002EF2D1CB4805F03BF8002557
:100DF00019E11F2B00D1BDE108AD22003900280008
:100E000003F0E2FA43462E55002B00D1C6E105223D
:100E1000002106A803F0D2FA43461B78722B79D141
:100E200042465278002A75D1713B06AA13700023FE
:100E300098469B4604930133039300239946B74F8A
:100E400000243E00BA4604E001344036802C00D134
:100E5000F1E03378002BF7D020222900701C08F035
:100E6000D2F80028F0D14346002B00D1A4E0A30122
:100E7000FB185A6A2033197A120A090611434B1CCF
:100E800000D186E0A64B9A4652469B68D0690293F1
:100E9000834200D290E11B1A9946814271D3029B92
:100EA00099426ED29F4B52461B68156A0593434682
:100EB00001934B4600220E00B946091A059F89008E
:100EC00000937B189446A0461968B5421FD8854206
:100ED00000D260E1029CA54200D35CE12E00002517
:100EE0001D604B1E033300D95DE1009B01329A4225
:100EF00000D958E188423DD8029B8B423AD935004F
:100F00000E00091A89007B181968B542DFD9019DC6
:100F1000AC46E4E742461278722A16D0772B00D00E
:100F2000CAE041464978002900D0C5E0763B06AAD0
:100F300098465370D370137100239B46013304937A
:100F4000002303930133994679E7414649782B29D9
:100F5000E4D1414689780029E0D1022306AAFF3373
:100F60001380002398469B46013304930393002388
:100F7000994664E7634644464F46002B01D05346EA
:100F80001E62694804F0F6FF0122684B1A70684B34
:100F90001A706849A301FB181A0000202132107052
:100FA00050709070D0700122253352421A705A70DE
:100FB0009A70DA7001230B70FFF7BAFB002800D19A
:100FC0000BE701205C4903F0C7F9051E00D101E1E0
:100FD000039B04600371A401049B3F1943713A0011
:100FE0005B46203283711379396A1B06090A0B4369
:100FF000C3605168127A090A12060A4302615A460E
:10100000002A4BD14D498260013A4250426181220F
:101010005946520181548161002B04D000220021E5
:10102000FFF74CFB6861280011B0F0BCBB46B2462C
:10103000A946A046F0BD4B4652460024002B05D1E0
:10104000C2E001344032802C00D1B8E01678002E86
:10105000F7D1A3019A46B946D1444022002148461F
:1010600003F0ACF952460123501CBB5429001F2247
:10107000381807F0D9FF4A4620321670053213009F
:10108000012252421A705A709A70DA70012329496B
:101090000B704346002B00D07CE78DE701222749E7
:1010A0005242836042504261812200211B0552015D
:1010B0001B0D81548361B6E7772A17D141464978E1
:1010C0002B2913D14146897800290FD1022306AA82
:1010D000FF331380013BFF3B9846D370137100230D
:1010E0009B460133994604930393A8E6612B27D1CD
:1010F00043465B78002B23D1013306AA53709370CB
:1011000013710023984601339B4604930023D9466C
:10111000039394E64496001030960010F0420020AD
:10112000F8620020F0620020EC9600107BB70020EF
:101130007DB700207AB70020241000001C100000AA
:10114000612A22D143465B782B2B1ED143469B78E4
:10115000002B1AD1022306AAFF331380013BFF3B69
:10116000937013710023984601339B46994604936C
:10117000039364E639001A4804F0FCFE002552E7A8
:10118000184804F06FFE00254DE74146164804F06C
:10119000F1FE002547E7019CA446A0E6134804F0B1
:1011A00061FE00253FE7634644464F46002B00D1D1
:1011B000EAE653461E62E7E6002399466DE60C48D0
:1011C00004F050FE00252EE729000A4804F0D2FE64
:1011D000002528E7084804F045FE002523E7C0461F
:1011E00070960010209600109C9600108C960010AF
:1011F000D0960010B89600101497001070B5041E19
:1012000037D081256D01435D002B11D01B4BC05899
:101210001B4BDA6990422DD39B6898422AD2210059
:1012200000031C31FFF7B0F800281FD000236355DE
:1012300022687F2A18D8134B92019B181A00217B31
:1012400021321170617B25335170A17B9170E17B5C
:10125000D170227C1A70627C5A70A27C9A70E27CF7
:10126000DA700122084B1A70FFF762FA200003F0CF
:1012700099F870BD054804F0F5FDF7E71C10000073
:10128000F8620020F04200207AB700203497001066
:10129000F0B54E46DE4657464546E0B50400894661
:1012A00083B0002800D175E0002A00DA72E000293E
:1012B0005BD00379002B5ED0002A4ED08168C668CF
:1012C000B1424AD2761A964200D9160000239846B7
:1012D0006B46DF1D00239B4680235B019A460EE090
:1012E0001B039B1801002A001800FFF721F80028B3
:1012F00048D0A168A8446918A160761B22D05B463B
:101300003A0020003B70FFF7D9F95146A26803006C
:101310001205120D8D1AB54200D93500591C2ED078
:1013200048461E49404461589942D9D121001C3198
:1013300089182A0003F048F8A168A8446918A16038
:10134000761BDCD10B051B0DA361E36899421CD30E
:10135000012040426061404600E0002003B0F0BC44
:10136000BB46B246A946A046F0BD002A12D1037979
:101370000020002BF2D10A4804F074FD02E0094875
:1013800004F070FD01204042E8E700222000FFF752
:1013900095F9DFE7044804F065FDF3E71C10000051
:1013A000749700109897001058970010F0B54546B4
:1013B000DE4657464E46E0B587B08046039100288A
:1013C00000D153E1002A00DA50E1002900D12FE1D9
:1013D0004379002B00D132E1002A00D142E1019291
:1013E0008379002B2BD183689B4600230093A14B6C
:1013F000A14F9A46A14E5B461D0B43461C69631CD8
:1014000000D18BE000239946002D00D120E1484611
:10141000F9698C4203D3BB689C46A34213D82100D0
:10142000974804F0A7FD0098002801D10120404210
:1014300007B0F0BCBB46B246A946A046F0BDC368A3
:101440009B468360D1E73268631A9B009A580592E5
:10145000531C53D08A424CD394454AD91400013DC1
:10146000002DD6D18146434680259B686D011B0522
:101470001B0D9B46ED1A019B9D4200D91D00631C6C
:10148000D1D0FB699C42CED3BA6894469442CAD26A
:1014900040467C4A805884424ED0812142464901D0
:1014A000525C002A00D1B4E0834200D99FE0844519
:1014B00000D89CE01C21000341440291FEF764FF28
:1014C0000028B0D0812100234246490153544B46A5
:1014D000002B00D08FE0BB689C4200D29FE021002F
:1014E000694804F047FD01224146664B5242CA500A
:1014F00099E72100654804F03DFD94E705A8FFF752
:1015000089F8002800D18EE7F9693268631A059CD2
:101510009B00D450012352461370A0E74046103080
:10152000FFF778F88146002800D17CE743461C6924
:10153000002D00D06BE796E71C2343440293009BE9
:1015400002989C4603992A005844614402F03CFFEB
:101550008123414601225B01CA548B689B46AB4400
:101560005A46CB688A609B4501D95B46CA60009A9F
:101570009446AC4462460092019A521B019200D0FC
:1015800039E7424611687F291DD8414A890152181E
:101590001100180A21310B70487018021B0ECB7015
:1015A00013004246127C25331A704246527C000ECC
:1015B0005A704246927C88709A704246D27CDA70A9
:1015C0000122344B1A70FFF7B3F8002800D12DE741
:1015D0004346424699680B051B0D9361D3689942B7
:1015E00031D30120404243465861009820E72A4801
:1015F00004F038FC17E7802200210298520102F023
:10160000DDFE42461F4B4146D45000220433CA54EB
:1016100095E71C23434402934B46002BEBD18022D9
:10162000029920035201FEF783FE0028E9D15AE710
:10163000002A1BD143790020002B00D0F8E6174880
:1016400004F010FCF2E600224046FFF737F8CAE744
:1016500080255B466D01ED1A019B9D4204D8002355
:1016600099460EE70020E3E61D00F8E70C4804F079
:10167000F9FBDBE67BB70020F8620020F062002077
:10168000149500101C100000D09500102C9500102F
:10169000F04200207AB7002034970010D097001055
:1016A000B497001070B50B00061E35D0012A0AD081
:1016B000022A22D0002A1CD01100194804F05AFC3A
:1016C0000120404270BD00218068F2681C00DD17D7
:1016D00024184D41002D1AD1944218D823051B0D12
:1016E000B460B361A2420CD8012040427061002076
:1016F000E8E7C26800210020E8E7C2680021100086
:10170000E4E7002221003000FEF7D8FFEEE72100D9
:10171000044804F02FFCD3E7034804F0A3FBCFE711
:101720000C98001028980010F49700100022024B2B
:101730001860024B1A707047206300207CB70020AD
:10174000F0B5DE464E4657464546E0B5DE4893B016
:1017500004F088FBDD4CDE4E2100300004F00AFC72
:101760000020FFF7E3FFFFF705F9002800D057E25C
:101770000020FFF7DBFFFFF76DF98046002800D05F
:101780006CE32100D34804F0F5FB0125D24F300073
:10179000390004F0EFFBD14B08AA13CB13C2196830
:1017A0000EA811601B790021137100230D220D93E7
:1017B00002F004FEFFF7DEF8002800D02AE2C84954
:1017C000C848FFF7E5FA041E00D16BE3102208A910
:1017D000FFF7ECFD102800D1D2E12F21C24AC34807
:1017E00004F0C8FB3900C24804F0C4FBC14B300010
:1017F00019009A4604F0BEFBFFF7BCF8002800D0A1
:10180000F0E2A0239B0100249946BB4F3B19200026
:1018100007219B4601F022FF63011B1B1130C018FA
:101820005B46013418704C45F0D1B449B448FFF719
:10183000AFFA8346002800D10AE322003900FFF7FF
:10184000B5FDA04200D1F8E13F21AE4AA74804F01F
:1018500091FB5146A64804F08DFB0135AA4B3000A0
:10186000190003AC984604F085FB2200A74B83CBFC
:1018700083C2196811601B79137101AB9946A44B9F
:101880001A6801924A461B791371A24B08AA83CBAE
:1018900083C219680EA811601B79002113710023FF
:1018A0000D220D9302F08AFDFFF764F8002800D0A6
:1018B000AAE18B499848FFF76BFA8246002800D1CD
:1018C000D8E210222100FFF771FD102800D1FFE1BE
:1018D0005521924A854804F04DFB4146844804F066
:1018E00049FB01358E4F3000390004F043FB0023E3
:1018F0000D930E93FFF73EF8002800D07EE1894B50
:101900007E4918009846FFF743FA041E00D1ABE267
:1019100003228549FFF74AFD032800D131E2662101
:10192000824A724804F026FB3900714804F022FB19
:1019300001357F4C3000210004F01CFB00230C22F9
:1019400000210EA80D9302F039FDFFF713F80028CF
:1019500000D04DE1774B694F180039009846FFF7EA
:1019600017FA8146002800D196E20B227249FFF750
:101970001DFD0B2800D1D7E17A21704A5B4804F0A5
:10198000F9FA21005A4804F0F5FA01356C4F30009D
:10199000390004F0EFFA00230D930E93FEF7EAFFEF
:1019A000002800D01EE14E496648FFF7F1F9041EF9
:1019B00000D16BE203226449FFF7F8FC032800D151
:1019C0009CE19121614A494804F0D4FA3900484821
:1019D00004F0D0FA01355E4C3000210004F0CAFA60
:1019E000FEF7C8FF002800D0F1E05A495A48FFF737
:1019F000CFF9002800D0EFE12100364804F0BAFA10
:101A0000564C3000210004F0B5FAFEF7B3FF002871
:101A100000D0D0E039495248FFF7BAF9002800D188
:101A200034E1A1214F4A314804F0A4FA21003048A2
:101A300004F0A0FA01354C4B30001900984604F030
:101A400099FA80235B0100249946484F2000072122
:101A500001F004FE63011B1B5B303E19C01801340A
:101A600030704C45F2D10320FFF760FEFEF782FF95
:101A7000002800D0A5E021493D48FFF789F9061E5E
:101A800000D1FDE122003900FFF790FCA04200D117
:101A900008E1AF21374A154804F06CFA4146144872
:101AA00004F068FA01352900334804F063FA01258F
:101AB000324804F0D7F96D42280013B0F0BCBB46A1
:101AC000B246A946A046F0BD549800106498001094
:101AD00074980010C4980010DC9800109C9F0010AF
:101AE000F0980010F49800101099001094980010CD
:101AF000D0980010EC9900103C670020049A001068
:101B0000089A0010149A0010089B0010B09F001053
:101B1000C49F0010CC9F0010189B0010249B001045
:101B20003C9C0010489C0010549C0010589C0010D5
:101B3000EC9C0010FC9C00100C9D0010189D0010E7
:101B4000B09D0010C09D0010C89D0010CC9D0010DD
:101B5000189E00102C9E0010309E0010589E001001
:101B6000A0950010689E0010BC9E001080210020EF
:101B7000CC9E0010D89E0010789F0010689F001027
:101B8000002200212000FFF78DFD002800D047E152
:101B9000102220000DA9FFF77BFB102800D019E2CE
:101BA0000D9A089B9A4200D148E23221D64AD74882
:101BB00004F0E0F916E6A021D54AD44804F0DAF999
:101BC00034E7AB21D24AD14804F0D4F966E79A2130
:101BD000CF4ACE4804F0CEF92100CE4804F0CAF92D
:101BE00001350DE78E21CA4AC84804F0C3F9EDE675
:101BF0007721C74AC54804F0BDF9C2E66321C44A4B
:101C0000C24804F0B7F98FE65221C14ABF4804F038
:101C1000B1F962E62C21BE4ABC4804F0ABF9E1E51B
:101C20002121BB4AB94804F0A5F92100B94804F0C4
:101C3000A1F9012302259846A8E55846FFF7DEFAE8
:101C4000B54B220000211800984602F0B7FBB349BB
:101C5000B348FFF79DF88346002800D1B4E1220085
:101C60004146FFF715FBA04200D0EBE04A46414653
:101C7000380007F0A7F9002800D09FE15846FFF789
:101C8000BDFA5146A74804F075F9E7E5A349A6480F
:101C9000FFF77EF8002800D0B0E02100A14804F052
:101CA00069F9C8E6220039003000FFF77FFBA04247
:101CB00000D09DE04A4639003000FFF777FB4845E9
:101CC00000D15BE1B121994A904804F053F9E5E66F
:101CD000002206215046FFF7E5FC002800D0A5E0D1
:101CE000042249465046FFF761FB042800D1DFE09B
:101CF00057218F4A854804F03DF9EEE50022002186
:101D00002000FFF7CFFC002800D095E0082220003B
:101D10000DA9FFF7BDFA032800D1E4E09321854A1D
:101D20007A4804F027F951E64846FFF767FA390088
:101D30004046FFF72DF8071E00D173E103227E49CC
:101D4000FFF734FB032865D13800FFF757FA404608
:101D50007249FFF71DF8071E00D1A0E110220DA95E
:101D6000FFF796FA032800D093E16A46734B928EF0
:101D70009A4200D141E18521714A644804F0FAF8A1
:101D8000FFE52000FFF73AFA40466E49FFF700F8FA
:101D9000041E00D14CE103226B49FFF707FB032827
:101DA00032D1002200212000FFF77CFC002800D067
:101DB0005DE1062220000DA9FFF76AFA062800D08F
:101DC00015E1624B0D9A9A4200D16EE16E21604A94
:101DD0004E4804F0CFF8A7E59B215E4A4B4804F03B
:101DE000C9F8F9E63A214A4A484804F0C3F830E510
:101DF000B0214E4A454804F0BDF84FE6A221564AAC
:101E0000424804F0B7F811E66B21544A3F4804F009
:101E1000B1F889E57F21524A3C4804F0ABF8B0E5BF
:101E20003021504A394804F0A5F8DBE456214E4AE7
:101E3000364804F09FF850E592214A4A334804F0AE
:101E400099F8C3E54521494A304804F093F800E584
:101E50003E21474A2D4804F08DF8FAE42321454AF3
:101E60002A4804F087F8E0E66521414A274804F053
:101E700081F859E554213E4A244804F07BF82CE5CA
:101E8000AE213B4A214804F075F807E69021384A14
:101E90001E4804F06FF899E57921354A1B4804F093
:101EA00069F86EE52E21324A184804F063F899E487
:101EB000002200215046FFF7F5FB002800D0DCE0AF
:101EC000102250460DA9FFF7E3F9102800D0A3E037
:101ED0000D9A089B9A4200D1F5E05A21264A0B48F8
:101EE00004F048F8F9E4082220000DA9FFF7D0F922
:101EF000002800D0C7E02000FFF780F9390009482A
:101F000004F038F867E5C046BC99001094980010BA
:101F100080980010D09800104C8F0020689A001014
:101F20006C9A0010C4980010849E0010D89E001077
:101F3000849B0010649D0010409D00106E650000A1
:101F4000909D0010789C00107C9C00106F6E657452
:101F5000C89C0010389E0010949E0010809C0010B9
:101F6000449D001058990010649B0010789A00104E
:101F700000990010B49800100C9C00102200390049
:101F80003000FFF713FA01302BD13000FFF736F99C
:101F90000020FFF7CBFBFEF7EDFC002800D0AAE005
:101FA0004146584803F0E6FF002D00D07BE5564837
:101FB00003F058FF554803F055FF7DE54621544A8C
:101FC000544803F0D7FF44E44421534A514803F0F6
:101FD000D1FF3EE43121514A4E4803F0CBFFFFF7D9
:101FE00001FCB2214E4A4B4803F0C4FF56E56D2177
:101FF0004C4A484803F0BEFF96E46B4636229B18D5
:102000001B78772B00D0B6E63800FFF7F7F82100F1
:102010003C4803F0AFFFB9E45921434A3D4803F07F
:10202000A9FF5AE47E213C4A3A4803F0A3FFA8E402
:102030006A21394A374803F09DFF75E40E9A099BDF
:102040009A4200D0B1E50F9A0A9B9A4200D0ACE5C3
:10205000109A0B9B9A4200D0A7E52000FFF7CEF81C
:102060003900284803F086FF4546FFF7BFFB6C2187
:102070002E4A284803F07EFF56E458212B4A254873
:1020800003F078FF29E49421294A224803F072FFE3
:102090009CE48421274A1F4803F06CFF71E48321EC
:1020A0001D4A1C4803F066FF6BE46A46224B128F00
:1020B0009A4200D08AE62000FFF7A0F839001148C4
:1020C00003F058FF35E40E9A099B9A4200D004E7CA
:1020D0000F9A0A9B9A4200D0FFE6109A0B9B9A42F5
:1020E00000D0FAE65046FFF789F84146054803F06C
:1020F00041FFFFF7F7FBB621104A064803F03AFF0D
:10210000CCE4C046C4980010509F0010689F001097
:10211000CC9A001094980010009900107899001043
:102120001C9F0010A09C0010C49B00105899001028
:10213000EC9D0010649D0010776F000080980010E7
:102140000123D0228340120693629361094A8300DF
:102150009A1811684022514080320A400649C00056
:102160008C4663441A60054B9C46052360444360DB
:102170007047C04604C0014004D001400040014007
:102180008023DB051868000F7047C0460FB400B508
:10219000084883B003F066FE049B002B07D005A916
:1021A0001800019103F0A4FC034803F05BFE01203A
:1021B00003F0B6FCE09F00107095001070B5EFF3CF
:1021C000108C72B60D4D2B68002BFCD0BFF35F8FC7
:1021D0000724CB08C618C05C01230C40A3401C0098
:1021E0000440034207D118433070BFF35F8F2C6067
:1021F0008CF3108870BD1000FFF7C8FF2C0100D0D1
:10220000F8B54746CE46884680B5EFF3108C72B6D7
:10221000214D2C68002CFCD0BFF35F8F9A422CD844
:10222000D4080727055D061901241740BC402C423D
:102230001FD007210127894609E0D408055D06194A
:102240004C4639001440A1400C00294211D0013203
:102250009342F2D201204042BFF35F8F00220E4B27
:102260001A608CF3108800280FDBC0BCB946B0465A
:10227000F8BD254310003570EEE7BFF35F8F0023F4
:102280002B608CF31088012040424346002BECD099
:102290000898FFF77BFFC0462C0100D0044A107855
:1022A000431CDBB2172B00D9102313707047C046B4
:1022B000D810002010B5064B064C82B001000093E8
:1022C00018221F232000FFF79BFF02B010BDC0465D
:1022D000F09F0010883200200021044B044ABFF315
:1022E0005F8F02C39342FAD17047C046000100D00D
:1022F000800100D0054B064A1360064A1360536004
:102300009360D360136153619361704780808080D4
:1023100000E400E004E400E01F2318401E3B83407B
:10232000002905D0C021044A49005350136070476A
:10233000802201498B50FAE700E100E0012282404F
:10234000034B1B6813405A1E9341D8B27047C046D6
:1023500000E100E001238340014A13607047C0465A
:1023600000E200E0064B10309B688000C358054A2D
:1023700000209B1A2F229A424041C0B27047C046AB
:1023800000ED00E0DC10002070B50D00EFF31086CA
:1023900072B60F4A1368002BFCD0BFF35F8F0D4B52
:1023A00010309B6884001B590B4A934203D09D4216
:1023B00001D000F0F9FF074B9B681D51BFF35F8F01
:1023C000BFF35F8F0022024B1A6086F3108870BD46
:1023D000240100D000ED00E0C1010010F0B54E4630
:1023E0004546DE465746E0B583B00600009190466C
:1023F000EFF3108B72B6654A1368002BFCD0BFF365
:102400005F8F0025624B5D579A46002D00DA79E018
:1024100052466B005F4C5F19BF000193E319994668
:102420009B79103613705C4BB6009B6899590B1B57
:102430002F2B33D9594B994200D07CE0019B0237B6
:102440009C46574B6544AD006353564BE719043B1C
:10245000DB1B554A1B055B0D651913436B80534B02
:102460000121AB80FF23AB714346EB71009BAB6056
:102470004B460B431900484B9B689951BFF35F8F44
:10248000BFF35F8F0022414B1A608BF3108803B0BB
:10249000F0BCBB46B246A946A046F0BD01200A00EA
:1024A0008243D379434549D9BC464746884607E02D
:1024B0005800C01880002018C179B94228D90200FC
:1024C0000623D356002BF3DA9A46131D9C46414649
:1024D000B846374F484663460438C01A0005324BA9
:1024E000400D1843019B908095715A1953469200F4
:1024F000A418A37143462F4AE371009B2260A78072
:10250000A360B8E700F050FF002553465D577FE712
:102510009A464146131DB84667469C469088043744
:1025200040050015E7196044C01BE0270005400D79
:102530003F020743CEE700F037FF7FE713001E4955
:102540001B1B5B415943090D154BBD1CE353154B38
:102550006519043B5B1B1B05134D5B0D2B43AC4600
:102560004D466B8065460437131FE719DB1B1B05BF
:102570005B0D1D434B4699714146D97100999D8071
:10258000996049460B4B0143136074E7240100D066
:102590007EB70020DC10002000ED00E0C10100103B
:1025A00000A1FFFF0C11002000E0FFFF01BDFFFFB5
:1025B00001BD000001488047AAAA000070B50124AF
:1025C0000443EFF30581EFF3108C72B6214A1368D0
:1025D000002BFCD0BFF35F8F1F4B05001F4AED1A85
:1025E0006D416A43120D1E4D8900AE6852B2765895
:1025F000A6421CD00621595691421CD01221595690
:10260000914222D01E215956914220D02A2159565A
:102610000324914210D0134B19781A708171BFF3C3
:102620005F8F00220B4B1A608CF3108870BDAB6873
:102630000D4C5C50EFE700246100091989005B181C
:10264000FF21997109499980E5E70124F4E7022403
:10265000F2E7C046240100D0DC100020AAAA000046
:1026600000ED00E07EB70020C101001001BDFFFFBA
:1026700010B5084B084C82B00100009300220523DE
:102680002000FFF7BDFD002801DB1F23181A02B050
:1026900010BDC0460CA0001082B70020024B9C4623
:1026A000614489000160704740000034F0B5FF23A9
:1026B000C646144D144F2C00984600B5BD420DD3AC
:1026C0001DE0FFF7EBFD01002800FFF7E7FF4346A1
:1026D000B380BFF35F8FBC4211D225002368260070
:1026E0000834002BEDD1FFF7D9FD01002800FFF7DA
:1026F000D5FF43463371BFF35F8FBC42EDD380BC3F
:10270000B846F0BDD0160020D816002010B5040041
:10271000FFF7C4FD01002000FFF7C0FFFF23237176
:10272000BFF35F8F10BDC04610B504000120FFF756
:10273000C1FD034BC3189B002360BFF35F8F10BD27
:1027400040000034034B9C46614489000160BFF3A4
:102750005F8F7047400000340A4B1968EFF3108018
:1027600072B60A68002AFCD0BFF35F8F1B68BFF304
:102770005F8F00221A6080F3108840BF0020002184
:102780007047C04658B70020F0B5DE4657464E4663
:102790004546E0B585B0EFF3058203231340B54A03
:1027A0009900575801229A4088469346B24B1A60C6
:1027B000B24B02935B46B24843630823FE5E002E91
:1027C00035DABB881BB2002B00DBA8E0BB79002BFD
:1027D00000D0E9E00823F85E00281EDB43007A6998
:1027E0001B18DB00D3189D68DC686B1C00D108E166
:1027F000A34801004144826A0B69AE1A9B1A9E42AB
:1028000013D35A46036A1A420FD09D4800F0B8FB12
:102810008C4202DCCED18542CCD940BF05B0F0BCA1
:10282000BB46B246A946A046F0BD0D61EDE77A6908
:10283000730091469B19DB0099444B469C68DD6808
:1028400000F09EFB8D42BCDC00D1FCE0002D00DAE4
:10285000E1E04A464B4652691B699246029A93420E
:1028600000D1D2E04A460821785E528800045146E1
:1028700010439847009001910099019A0B001000B5
:10288000134300D1C7E013000A00002800DBDEE09C
:1028900020002900801A99414B469860D960002297
:1028A0009A5E002A00DA8CE753009C187D69E400E8
:1028B0002C190093A368E4689A468C4200DD80E7F7
:1028C00002D1834200D97CE708239C46BC443A816C
:1028D00003976746009BB4463E000EE08C4200D151
:1028E000C3E01E000023F25E002A0BDB53009C189D
:1028F000E4002C19A768E468BA469B18DB00EB18C3
:102900008C42EBDD330066469C464B461A8063469C
:10291000039F1E80BB881BB2002B00DA56E73A6982
:10292000EFF3108172B61368002BFCD0BFF35F8FFA
:102930000123BE885B42BB8036B23B69BFF35F8F29
:1029400000221A6081F31088002E00DA3EE73B0077
:1029500008333A0099467D6973009B19DB00EB1838
:102960009968DC688C460820115E4846002910DB17
:10297000009306E0A34240D00023F95E380000290E
:1029800006DB4F007F18FF00EF19FB68A342F1DD63
:10299000009B068000201E5E1980002EDCDA1700E6
:1029A000BB79002B00D115E70023BB713D00082344
:1029B000F95E08354B1C00D12FE77C690800A4465E
:1029C00003E035004B1C00D106E74B005B180A0002
:1029D0006146DB00CE18C95E73881BB2002BF0DAAB
:1029E00001235B42DC17B360F4608242EAD02980A5
:1029F0003B89100033803A81E4E7BB686345BBD96B
:102A0000C6E7631C00D0F3E6FFE6534650461B6959
:102A10009847002823D14B461B883A693B81EFF346
:102A2000108372B611680029FCD0BFF35F8F49464E
:102A30007A880A803A697E80BFF35F8F0021116037
:102A400083F31088BDE6844200D8FFE6B9E60C485F
:102A500000F096FA009B019CC01861411CE75346A8
:102A60001A685B680092019306E7824500D838E750
:102A700048E7C0463C8F00203C7005408927001085
:102A80000040054070B52E4C2569002D04D00A2168
:102A90002C48FFF703FE70BD2B4E0321300000F0E1
:102AA00065FAE660FFF7FAFB284B03229C46D02329
:102AB00022701B061B6801216370254B6044A360D4
:102AC0000F23800020610220638063694942A18056
:102AD00019800231198647311D83585218315A52D4
:102AE00075325C39995218320131995218320131DC
:102AF0009952183201319952083518329D520231DB
:102B000018329952183201319952183201319952C2
:102B1000183201319952183201319952183201316B
:102B200099520C4B0C49DC6001303562FFF72CFCEC
:102B300001210320FFF7F0FB084B1D60A7E7C0460B
:102B40002411002058B70020004005404000003408
:102B5000FFFF10003C8F00208927001038600540DF
:102B60000048704724110020F8B51F0008AB1B78FF
:102B700004001600002B08D100F00AFA32003B00D6
:102B8000121A8B41002B00DA53E02269EFF3108018
:102B900072B61368002BFCD0BFF35F8F0223E15E97
:102BA00063694A005218D2009B18002937DB1A8843
:102BB00062802269BFF35F8F0025156080F3108863
:102BC000069A9E60DF601A61079A5A615A8801323C
:102BD0005204520C101C002A1FD082B258800804E4
:102BE00010432669EFF3108772B63268002AFCD0D2
:102BF000BFF35F8FA2881A80A1802369BFF35F8F24
:102C000000221A6087F310880B4923788C46013222
:102C10009A40E36863441A60F8BD0120DDE7236948
:102C2000BFF35F8F00221A6080F3108801204042BA
:102C3000F2E70020F0E7C0463C20000070B501003C
:102C40000469EFF3108C72B620680028FCD0BFF343
:102C50005F8F02200D5E4C6968004019C000241887
:102C6000002D37DB208848800869BFF35F8F00267E
:102C700006608CF31088E360638804980133206158
:102C80005B0405985B0CA26060611A1C002B1FD0CE
:102C900093B22804628018430A69EFF3108C72B66D
:102CA0001368002BFCD0BFF35F8F8B8823808D804F
:102CB0000B69BFF35F8F00221A608CF310880B78CA
:102CC00001329A40CB6808498C4663441A6070BD53
:102CD0000122DDE70B69BFF35F8F00221A608CF3DE
:102CE000108801204042F2E73C20000010B54389E3
:102CF0000A1493421ADD53009B184269DB00D31873
:102D00000469EFF3108C72B62268002AFCD0BFF37E
:102D10005F8F5A88090494B2090C8A4208D003696B
:102D2000BFF35F8F00221A608CF31088002010BD63
:102D30008022120214435C80012302698371BFF375
:102D40005F8F002111608CF31088044902788C4653
:102D50009340C268012062441360E8E73C20000011
:102D600040787047F0B504000D0006267642F7174C
:102D7000C64636196F4100B582B08F4214D811D0C3
:102D800000F006F932003B00121A8B41002B17DCD1
:102D9000002B47D02000290000F004F902B080BCCD
:102DA000B846F0BD8642EBD90022002316001F0072
:102DB00000F0EEF832003B00121A8B41002BE7DDE9
:102DC00000F0E6F832003B00121A8B41002B0ADBC0
:102DD00000230193154B3200009315483B00FFF789
:102DE0002DFF0028D6DB00239C46B046114A124E28
:102DF000736A9F4204D8B16A4145CBD29F42C9D180
:102E00001168EFF3108072B60B68002BFCD0BFF393
:102E10005F8F1368BFF35F8F6146196080F310887E
:102E200020BFE5E7002AB5D0CAE7C0465927001001
:102E30002411002058B700200040054070B506005E
:102E400000F0A6F8FA2204000D0000233000002153
:102E5000920001F01FFA8023001969411B06994274
:102E600002D3012002494042FFF77CFF70BDC046FB
:102E7000FFFFFF7FF0B5D6464F464646C0B504007B
:102E80000D0082B0EFF305878946002F0ED034493C
:102E900000204B6AAB4203D38A6A0130A24226D398
:102EA00002B0E0BCBA46B146A846F0BD2D4B9846EC
:102EB000DB689A46434650461E7800F061F80B00E6
:102EC000514602000436B600715820008E1A2900BF
:102ED000801A99418F4211DC0ED020BF204A002079
:102EE000536A4B45DCD3926A0130A242D8D25B1BB5
:102EF0005A1E9341D8B2D3E78642EED900F048F883
:102F000022002B00121A8B41002B1ADB00230193A5
:102F1000154B2200009340462B00FFF78FFE011E49
:102F20000FDD0F4B5A6A4A4517D39B6AA34212D34F
:102F30004046FFF7DBFE0A4A0020536A4B45AFD3F9
:102F4000D1E7074A0020536A4B45A9D3926A012072
:102F5000A242A5D2CBE74A45EAD120BFE8E7C04666
:102F600000400540241100205927001010B5024AE6
:102F70000248FFF723F910BD28A000108C32002072
:102F80000300416A0A00986A596A8A42FAD1704776
:102F9000034B596A0A00986A596A9142FAD17047FC
:102FA00000400540064A536A9942FCD807D1044BB9
:102FB00002E05A6A914202D19A6A8242F9D370477A
:102FC00000400540F8B5DE464E4657464546E0B55A
:102FD0008B4605000A991800160000F03FFB0A9B7B
:102FE0006C001F02314B64199C46A4006444636862
:102FF00081469F4200D967602B1FDBB29846C023F1
:1030000042469B01E318012A2DD9802212011A6041
:10301000274BAD0059599A4600291BD17301E02670
:10302000226853401E40802342465B01E3181E6025
:10303000012A2DD9802380229B01E31812011A60F6
:1030400053464A4667605A51F0BCBB46B246A94651
:10305000A046F8BD586900F001FB013043001B1881
:10306000033BFDD2DAE75A46012ACED102321A607A
:10307000023AA3681A42FCD07301E0262268AD0030
:1030800053401E4080230A4A5B019246E3181E60AB
:103090005A462168514003220A401A6001225B46C9
:1030A0009A40A3681A42FCD0C4E7C04600800040A2
:1030B00090320020F0B546464F46D646C0B51F00B8
:1030C000334B44009C462418A4006444636888463B
:1030D0001600FF2B02D880235B006360031FDBB266
:1030E0009A46C02352469B01E318012A2DD980221B
:1030F00012011A60274B85005959994600291BD1A6
:103100007301E026226853401E40802352465B0133
:10311000E3181E60012A2DD9802380229B01E31829
:1031200012011A6080235B0063604B465F51E0BC74
:10313000BA46B146A846F0BD586900F08FFA013092
:1031400043001B18033BFDD2DAE74246012ACED1E9
:1031500002321A60023AA3681A42FCD07301E026D8
:103160002268850053401E4080230A4A5B01914635
:10317000E3181E6042462168514003220A401A604B
:10318000012342469340A2681342FCD0C4E7C046E4
:103190000080004090320020014B8000C0587047F2
:1031A00090320020F8B5040020481D0017000E00E2
:1031B00000F054FA0100380000F050FA069B290490
:1031C0001B0319432368002B1EDB194B194DE21812
:1031D00053425A4180235B019C461203164B6244C2
:1031E0001A60164B1A6017002B689F43FBD1144BD3
:1031F0002660E2182123A06013602368002BFCDA0C
:103200000823E1601360F8BD3F2322681340B342F6
:10321000DBD1A3681B051B0D8342D6D1EE22E368E8
:10322000D20213408B42D0D1EDE7C046001BB7005D
:103230000040FDBF08C0004000E0004000F000403A
:103240000430000010B580241C4BE4051C600028ED
:103250001AD001231A4C18431A4BDC611A4C444013
:103260001C62596298628021144BC9051960174885
:1032700017490860E021C9041960002A07D180229B
:10328000144B12061A6010BD0E4BD861EBE75301C8
:103290009B1A9B009A18802312015B049A4209D260
:1032A00013000D490B60074B5A608022094BD20571
:1032B0001A60E8E7094B1A00F3E7C04600B0054082
:1032C000D3C007B0008005402D3FF84FFCFF010040
:1032D0000820014000A005402C670020FFFFFF00F0
:1032E0008023024A9B000B43D36270470080054055
:1032F000142310B50100188804331B88984710BDAB
:10330000162310B50100188802331B88984710BD9A
:10331000F8B54746CE4680B50F1E19D014239946FE
:10332000043304000025012698464B46188843467E
:1033300021681B88984701C4431E984101354042CB
:103340000640AF42F1D13000C0BCB946B046F8BD2E
:103350000126F8E7142370B50400188804331B888D
:103360000D000549984703000020002C01DB0130C7
:10337000A04029009847C04655420000AA23064AAB
:103380001B0113608D235B00D3600449044B19605B
:103390005368002BFCDA70470040024000B0FA008E
:1033A000006002407047C04610B50148FEF7EEFECF
:1033B0004CA0001070B5074D074EB54209D200244D
:1033C000013E761BB60808CD984723000134B3426E
:1033D000F9D170BDA0930010DC930010054B064A94
:1033E00006491A60064A074B1A6010000B6898439A
:1033F000FBD1704700E00040BFCDFBFE08C000409D
:10340000FE7F3C0000F00040044BDB6C002B03D13E
:103410008022034BD2021A607047C0460000115050
:103420004C201150044A054B1A60054A1368DB0111
:103430008033FBD17047C046FFFFFF0100F0004022
:1034400008C000404022034B9A675A671A67DA6641
:103450007047C04600F0014010B5FEF73DFF10BDBB
:10346000F8B52B492B4C2C4D641AA6103200302E87
:1034700000D930222800920000F0A6FFBC2C3ED8D4
:10348000731C18000127254A302B3BD92F212C19FA
:103490006407E40F891B052917D9302B15D8002C98
:1034A00033D0B300EA503F1B33199B007908EB1867
:1034B000C900C9181A605A6008338B42FAD1012337
:1034C0003B421CD09F433E18731CB1006A50302B06
:1034D00015D09B00EA50B31C2E2E10D09B00EA5052
:1034E000F31C2D2E0BD09B00EA50331D2C2E06D042
:1034F0009B00EA50731D2B2E01D09B00EA50084B15
:103500009D60F8BD2F37BF1BC0E73000CBE7C0463A
:1035100000010010C001001000000020C1010010D7
:1035200000ED00E0002310B5294C82B0A367FFF73F
:1035300025FF0122274B1A60636C012BFCD103226B
:10354000254B1A60224A936B012BFCD10133009367
:103550000121224A22480433FFF724FE05230121DA
:103560000093204A2048FFF71DFE0022022104207C
:103570001E4BFFF79FFD0022012105201C4BFFF78A
:1035800099FD0022002107201A4BFFF793FD00222E
:1035900000210820174BFFF78DFD8023DB000093EF
:1035A000002200210920134BFFF70CFD0022104BD5
:1035B00000210620FFF77EFD0420FFF7EDFD0E49F8
:1035C00000F04CF801000020FFF78AFE02B010BDA9
:1035D000008000403CB0004030B00040002F6859EF
:1035E00000800240008C864700C00240001BB700EC
:1035F00040597307006CDC0240420F00014804216F
:10360000014B18474011002011330010124A936FEC
:103610009B0815D29066D166002905D0FFE7FFE729
:10362000FFE7516F106F704704B580210906C2177C
:103630005140002800D0C84305F062FE002104BDBF
:10364000F0B5146E556E576F166FFFF7E3FF1466F3
:10365000556657671667F0BD000000D0114A936F9A
:103660009B0813D210665166002905D0FFE7FFE7DB
:10367000FFE7516F106F704704B5002801D000209C
:10368000C04305F03DFE002104BDC046F0B5146EF8
:10369000556E576F166FFFF7E5FF1466556657674F
:1036A0001667F0BD000000D094464A4A926F920817
:1036B000624601D228E0C046F0B5464E346E756EC3
:1036C000776F366F00F020F89446424A14665566CC
:1036D000576716676246F0BD94463E4A926F92085D
:1036E000624601D254E0C046F0B53A4E346E756E73
:1036F000776F366F00F04CF89446364A146655667C
:10370000576716676246F0BD002B24DB11D00029F5
:103710003EDA00B5C943404200D1013100F038F82B
:10372000C943404200D10131DB43524200D1013351
:1037300000BD002AEBD1002801D1002905D00020CE
:10374000C90FC90701D1C043410800B505F0C8FD44
:103750000022002300BD00B500290ADBDB435242F2
:1037600000D1013300F014F8C943404200D10131C7
:1037700000BDC943404200D10131DB43524200D178
:10378000013300F005F8DB43524200D1013300BDA4
:10379000002923D1002B18D1002A0CD0BC460D4F94
:1037A00038667A6600210023FFE7FFE7FFE77A6FBC
:1037B000386F67467047002801D00748010000B500
:1037C00005F08EFD0022002300BD02000B0000204A
:1037D00000217047000000D0FFFFFFFF002B00D04A
:1037E000BFE0130C28D1002AE7D080B4114F39660E
:1037F0007A66FFE7FFE730B4040C7B6F396F1B0478
:1038000023433B667A66FFE7FFE7FFE7C04684B2E3
:103810007B6F3D6F1B0423433B667A66FFE7FFE740
:10382000C04600232C042D0C7A6F386F00196941B3
:10383000B0BC7047000000D0F0B594460025140ECF
:1038400001D112020835140F01D112010435940F71
:1038500001D192000235D40F01D152000135D40BB1
:103860000134254F7C66254C3C660E0C93B2FFE775
:10387000FFE7FFE73C6F6643360C7703BE467343B2
:10388000DF0B5B04C01AB941130C7343DB18C91A70
:10389000CE086643360CB64493B273431F0F1B0128
:1038A000C01AB941130C73431F0B1B05C01AB94151
:1038B000860D8F023E436643360C092D24DB520AE7
:1038C0007243801A7703460A6643360C16235B1B45
:1038D000DE40DF40BF1964466643821B70460435F4
:1038E00006330100D940A840C01900D30131A242DB
:1038F00006D20023F0BD0000000000D0FFFFFFFF54
:10390000121B0130F3D3F1E709277F1BFE40644609
:10391000A2B27243801A00D20139220C7243130CF6
:103920001204821A99410B007046043513370100C6
:10393000F940A840801900D30131002B02D1A242E6
:103940000AD2F0BD013000D30131121BFAD2013B83
:10395000F8D1A24200D2F0BD013000D30131121BD8
:10396000F7E7F0B51C0C00D080E00CB400251C0A71
:1039700004D11B02160E3343120208351C0B04D16E
:103980001B01160F3343120104359C0B04D19B001D
:10399000960F334392000235DC0B02D192185B4143
:1039A00001351C00971864410134464F7C66464C33
:1039B0003C660E0CFFE7FFE7FFE7C0463C6F66433F
:1039C000360C7703BE4697B27743C01B00D201394D
:1039D000C01B00D201399FB27743C91BC91B170C0A
:1039E00077437E04FF0B801BB941CE086643360C3B
:1039F0000C2D33DBB644120B1F053A431B0B97B259
:103A00007743C01B00D201399FB27743C91B170C03
:103A100077433E043F0C801BB941860D8F023E4325
:103A2000664329277F1BFE400C3D7746AF40BF19F8
:103A300030BCA2B2ABB272437343801A9941220CDC
:103A40007243130C1204801A994102000B000137D3
:103A5000001BA941F9D2781E0021F0BD0C277F1B65
:103A6000FE4077467F0BAF40FF19E0E700245D1C66
:103A700007D0144F7D663966FFE7FFE7FFE7FFE7F2
:103A80003C6F95B29EB265436643401BB141150C35
:103A90001E0C6543664336042F0C3E432D04401B29
:103AA000B141994204D202000B0020000021F0BD78
:103AB00001D19042F7D3801A994101349942F2D34F
:103AC000F6E70000000000D0FFFFFFFF4840414044
:103AD000484018B41B4B5B68FC46019308BD04DFEB
:103AE000673D001018B4174B1B68FC46019308BDD6
:103AF00000DF713D00109446134A926F920809D27C
:103B0000624618B40F4BDB68FC46019308BD0CDF1E
:103B1000294000100C4AF0B5146E556E576F166FA1
:103B20006246FFF7EEFF084A146655665767166748
:103B3000F0BD18B4034B9B68FC46019308BD08DF39
:103B4000CD3E001060180020000000D0FFB55040AE
:103B50004240504059404B40594000E0FFB5154F9E
:103B60004C00640D03D0BC4204D10C0314D80020D7
:103B7000090D09055C00640D03D0BC4204D11C038F
:103B80000AD800221B0D1B0501264B4009D44B40CF
:103B900003D58B4200D18242FFBD9942FCD19042B5
:103BA000FFBD0B43DB1803431343F5D0C94349184A
:103BB000FFBD0000FF07000000B5FFF7CFFF804109
:103BC00000BDC04600B5FFF7C1FF01D9002000BD10
:103BD000012000BD00B5FFF7B9FF804100BD012005
:103BE00040054A00121804D85A00121801D80020C3
:103BF00070470120704700000021002805D1704760
:103C0000C1174840401AFAD0C90713B5064B1B68C4
:103C100098470CBC441CA2401005120B0349091B19
:103C200009051943114310BD54B700201F040000BB
:103C300010B54C00620D8023D218DB00D21A5B0550
:103C40007E2A10DD9E3A13DACC170903490819437E
:103C50005242D140640001341532202A05DAD040A6
:103C60000843604310BD002010BD0846604310BDEE
:103C7000C80FC018013810BD18B4044B5B6AFC466D
:103C8000019308BD24DFD941001000006018002016
:103C9000132370B51D78012D19D014DD1F48FFF7CF
:103CA0002FFB06001E48FFF72BFB1E4C8022310025
:103CB000200000F089FB022D2DD01B48FFF718FBD8
:103CC0001A4B186070BD1A4B164CA364F5E7184BDD
:103CD000144C23606360A360E36023616361A361AC
:103CE000E36123626362A362E36223636363A363AA
:103CF000E36323646364A364E36423656365A3658A
:103D0000E36523666366A366E36623676367A36769
:103D1000E367A364D1E7064BA364CEE753440000F6
:103D200053460000601800204C33000054B70020B8
:103D3000353D001007B5604601880A0A0230DF2AC7
:103D4000FAD1C9B2820804D3028840880004104323
:103D500000E00068014A5050039007BD6018002041
:103D60000FB403BC0CBCF0B50124E407634000E0D1
:103D7000F0B50C0DCF0F661E3605891B640503D305
:103D8000C943404200D30131640D03D0661CF60ADA
:103D900007D0E41B00207F00791C89078912803C32
:103DA00024031D0DDF0F6E1E36059B1B6D0503D30F
:103DB000DB43524200D301336D0D03D06E1CF60A73
:103DC00007D0ED1B00227F007B1C9B079B12803DD0
:103DD0002D032F1B661B58D4A446202E46DA20370D
:103DE0001400BC401D00BD40F24033412A438018FE
:103DF0005941CB0F05D0C943C04300226442504112
:103E0000514162464D0D28D10D0D07D100281FD01C
:103E1000241940414941013A0D0DF9D0640006D3FF
:103E2000013000D30131002C01D140084000013A9B
:103E30000BD4941CE40A04D112051144DB07194485
:103E4000F0BDD907204B194300E0D9070020F0BD91
:103E50000029DDD1002CDBD1F0BD0132C6074008BE
:103E6000CD0728434908002EE1D0D9E73C2E29DAB6
:103E7000203E40371400BC4000D00124F2401443DF
:103E80001A00BB401C43D317ACE7AC46202F08DA1E
:103E900020360400B4400D00B540F84039412843B5
:103EA000A5E73C2F0CDA203F40360400B44000D098
:103EB0000124F84004430800B1400C43C117EAE76D
:103EC00010001900002494E70000F07FF0B50C0DFD
:103ED000661E3605891BE60A6405640D02D0651C62
:103EE000ED0A04D0002001210905803C2403A446EA
:103EF0001C0D671E3F05DB1BE70A6405640D02D03D
:103F0000651CED0A04D0002201231B05803C24031C
:103F10007740644497B484B296B27443070C7E43EE
:103F2000150C6F4380B26843361802D30120000499
:103F30003F183004350C00197D41844688B29AB28E
:103F400050430C0C62431F0C7C438EB27E4392198B
:103F500002D301263604A4191604170C361867413B
:103F600001BC81B29AB25143040C62431B0C5C4306
:103F700080B25843121802D3012000042418100400
:103F8000130C401863412D185E410020474106BCC8
:103F900088B293B258430C0C6343120C544389B259
:103FA00051435B1802D301210904641819041A0C47
:103FB000091862416D1856410020474118BCF902AA
:103FC000720D1143F0026A0D1043ED020A0D03D188
:103FD0006D1940414941013B124E9B1B7600B34293
:103FE0000ED26D0007D3013000267141664635437D
:103FF00001D1400840001B05C918E4072144F0BD69
:104000000BDA013306D1013004D101314F0D01D05B
:104010004908F2E7E1070020F0BD01363105002034
:10402000EBE70000FF030000F0B51C0D671E3F0525
:10403000DB1BE70A6405640D02D0661CF60A04D097
:10404000002201231B05803C2403D0252D060026D9
:10405000F6432E661E096E66CE0FF619B446490069
:104060004F0D02D07E1CF60A03D000200021403FF5
:104070003F033E1BB600B444013F7F05C91B4908FE
:104080002E6F013676089C02950D25437543ED137E
:104090007543AD1301356D10F603761B0CB4CC02DD
:1040A000450D2C43A2B2B3B25A43270C7B43350CC7
:1040B0006F43A4B26C431B1902D3012424043F199B
:1040C0001C041D0CA4187D4124196D41009A91B265
:1040D000ACB26143170C7C432B0C5F4392B25A4342
:1040E000A41802D301221204BF182204230C521870
:1040F0007B41019C6C431B19520ED9010A434401B8
:10410000A01A81B2B2B2514303145A43360C73431E
:1041100087B27743D617D21900277E4136049B1900
:104120001704160C7F185E417316ED18F301002674
:1041300080337541A90F06D16400690AE8055B0A5E
:10414000184309D22FE00422944480337541A90A10
:10415000A8059B0A184326D3404149412404009AEC
:10416000019B0D005543641B4343E41A95B286B28C
:104170007543170C7E43030C5F4392B25A43B61843
:1041800002D301221204BF183204330C52197B41AE
:1041900052429C41002C02D400220130514140087F
:1041A000CA071043490802B06246D7079210084B6D
:1041B000D218084B9A4203D212058918C919F0BDCA
:1041C0000020002A01DC3900F0BD01331905F5E7B4
:1041D000FD030000FE070000002200B5203200F0C1
:1041E00004F8080000BD000000220B150AD410B529
:1041F000944600F031F81414013400DA0021CB1792
:10420000144C20470020002170476244343A0CD4FB
:104210000C2A07DA04009140904052422032D440E8
:10422000214310BDD843D94310BD203207D40C46DA
:104230009440524220321141D040204310BD08002A
:10424000C917203203D452422032104110BD180049
:10425000190010BD0B4200100A0DCC0F531E1B0598
:10426000C91A520503D3C943404200D30131520D4C
:1042700003D0531CDB0A07D0121B00206400611C12
:1042800089078912803A1203014BD21A7047000045
:10429000FF03000051434343C9188C46110C83B2FD
:1042A0004B4310B4040C614392B280B2504362435A
:1042B0001C041B0C001910BC59411304120CC0182B
:1042C0005141614470470000132310B512481C7817
:1042D000FFF716F80100012C0AD003DD80220F48F9
:1042E00000F072F80E48FFF703F80E4B186010BD8F
:1042F0000A4C5422200000F067F80B4B6365A3655D
:10430000E36523666366A366E36623676367A36763
:10431000E3672362E361E5E753460000601900208C
:104320004C33000054B700202D43001007B5604601
:1043300001880A0A0230DF2AFAD1C9B2820804D3FE
:10434000028840880004104300E00068014A505091
:10435000039007BD6019002070B505000C0004F043
:10436000FBF96C43002804D0034B04199C4200D88D
:1043700070BD0248FDF70AFF0000042058A000109D
:1043800010B50C0004F06AFC002804D0034B04199B
:104390009C4200D810BD0248FDF7F8FE0000042042
:1043A00058A0001010B504F02FFA10BD01480421E8
:1043B000014B18475011002011330010014B1B68AE
:1043C0001847000050110020014B5B68184700009F
:1043D000501100207047C046F8B557464546DE46A6
:1043E0004E46E0B598460A9B06009A460D9B0F0084
:1043F000934615009B0710D10B9B0C9A93420CD24D
:1044000013005C460B9A9D1A5D442200434601341A
:1044100039002020B047A542F7D10B9C6319002C2E
:1044200009D01D0053462A1B013C185D3900434644
:10443000B047002CF6D10D9B9B070ED55B46EC1ABE
:104440000C9BA34209D999462A00434639002020F3
:104450000134B0470135A145F6D82800F0BCBB4671
:10446000B246A946A046F8BDF0B54F464646D646E8
:10447000C0B584B098460EAB1B7894469946129B03
:104480000D9C109F119E9A0724D4002E6AD1BC4225
:1044900020D201221A409246202C00D1D2E00C9A60
:1044A000551E302201E0202C30D001342A55A7427D
:1044B000F9D85246002A0DD0B4420BD20C9A551EA0
:1044C0003022202C02D126E0202C63D001342A5542
:1044D000B442F9D1DA0634D55A0564D4002C5ED141
:1044E0000F9A102A00D197E0022A00D1A8E03022CA
:1044F0000C9C227001244A46002A5ED15A0700D43F
:1045000083E02B220C9D2A5501341CE05246002AE0
:1045100002D0202E3ED92024DA0614D55A0512D412
:10452000202F00D1A1E0202E3DD120261F223400D3
:104530000F9D102D00D18BE0022D52D030250C9F05
:10454000BD54202CD7D103930C9B62460093029656
:1045500043460194FFF740FF04B0E0BCBA46B146C1
:10456000A846F0BD012215001D40AA461A4229D0D6
:104570004A46002A39D10C321A4236D1BC429BD26B
:10458000202C00D08BE710221A40202EC3D8002AFE
:10459000A2D1D8E72024DA06D5D55A0503D4A742FC
:1045A00025D0B44223D00F9A102A25D0022A14D045
:1045B000202CC8D022000134C0E72D220C9D2A55A2
:1045C0000134C0E7BC4200D384E7202C00D066E76A
:1045D00010221A40002AE0D1B5E7202CB3D02200E7
:1045E000013462250C9FBD54E2E7013EC6E7621E1E
:1045F000012C00D174E79BE79A0616D4202CA2D098
:1046000078220C9D2A550134D2E71A079BD5202227
:104610000C9D2A55013496E79A060FD478220C9CFB
:10462000227030226270022465E7202C00D18AE7D4
:1046300058250C9A121915700134B9E75822EEE783
:104640006222ECE7102255461A40002D9FD1C1E7A7
:10465000023C9D0604D478250C9F3D551400A9E723
:1046600058250C9F3D551400A4E71F2260E7C04663
:1046700010B5002800D110BD01F0A8FBFBE7C04633
:104680000B0010B5002802D049681B68984710BD80
:10469000F0B557464E464546DE46E0B599B08246EF
:1046A000894690460893229A239B10001900FFF731
:1046B00096FA002800D0CDE0229823990122D94B08
:1046C0005242FFF787FA002800D0C3E022982399CE
:1046D0000122D54B5242FFF76FFA002800D0B9E013
:1046E0002298239900220023FFF766FA002800D0C1
:1046F000F1E1229E239F8023269ADB001A400D922F
:10470000269A1A4201D1062324938023269A1B015C
:104710001A403B0093460996334300D0B3E0002A89
:1047200000D0C2E1002300240A930B940023042547
:104730000993259B0024AB4200D95C1B0223269AD7
:104740001A400C92269A134203D06B426B415B4293
:104750001C40099B002B07D00A9A0B9B30003900A4
:10476000FFF7C9F906000F002298239900220023C1
:10477000FFF722FA002803D0802109067B181F00CA
:10478000269AAA4B009601971340089E0493249BF7
:1047900003940293424633004946504600F0AAF97A
:1047A0000400002D67D02020269A494602401300BD
:1047B0005A4253415B42621C18400A923300220065
:1047C0004530D047099A6F1ED317D4185C40D30FD9
:1047D0009B46002501E0202D13D008AA94461F23F4
:1047E000200063440A2101355E19FEF737FF30319E
:1047F000317020000A21FEF731FF26000400092E47
:10480000E9D805230693002304930A3303935B46F8
:10481000089E029310AB0A9A009349463300504613
:1048200005970195FFF720FE0C9A0400002A22D07C
:104830004246851A259AAA421DD9B0465746160007
:1048400022004346494620200135B8470134AE4294
:10485000F6D810E0269B42460493259B49460393D5
:10486000249B50460293229B239C00930194089B17
:1048700000F040F90400200019B0F0BCBB46B2467D
:10488000A946A046F0BD6A4B78009C46400D6044A6
:10489000FFF7B6F9674A684BFFF74BF9674A684B71
:1048A000FFF720F9674A3B031B0B1A4304000D0076
:1048B00009981100644B0022FFF70BF9634A644B1F
:1048C000FFF737F902000B0020002900FFF70AF973
:1048D000FFF7AEF90990FFF793F95E4A5E4B0400CB
:1048E0000D00FFF726F900225C4BFFF7FBF8FFF7FE
:1048F0009FF95B4A5B4B29000C902000FFF719F9E8
:1049000004000C980D00FFF77BF9574A574BFFF74F
:1049100010F902000B0020002900FFF7DAF804006C
:104920000D0002000B000A940B95FFF702F904003A
:104930000D000A980B9902000B00FFF7D3F8002234
:104940000E900F914A4B20002900FFF7D4F8002267
:10495000484BFFF7C7F802000B0020002900FFF7C3
:10496000CAF80022444BFFF7BDF802000B002000FC
:104970002900FFF7C0F80A9A0B9B0D008021040064
:10498000C9050020FFF7A5F802000B002000290050
:10499000FFF7A8F802000B000E980F99FFF7ABF88D
:1049A0000022284BFFF79EF8344B0C9C9C46644435
:1049B00023050022FFF7BDF804000D0002000B00E4
:1049C000300039000A940B95FFF7F6F800285DD106
:1049D00023002A00C625099963318D42AD4159460D
:1049E0006D420435002900D1A3E6134363D03000A3
:1049F0003900234A234BFFF7E5F8002807D00022AF
:104A000030003900204BFFF7D7F8002853D1249B02
:104A1000002B00D18DE60D9B5A1E9341249AD31A88
:104A2000249386E6FFFFEF7FFFFFEFFFFFF7FFFF17
:104A300001FCFFFFFB799F501344D33FB3C8608B49
:104A4000288AC63F0000F03F0000F83F61436F63D3
:104A5000A787D23F71A379094F930A400000E03F36
:104A60001655B5BBB16B0240EF39FAFE422EE63F58
:104A700000002C400000244000001840FF0300000C
:104A80002D431CEBE2361A3F80842E41099B002205
:104A9000013B09932000164B2900FFF72CF80A0070
:104AA000010003000A910B9294E7002300240A936B
:104AB0000B9400230993249A099B9A4214DDD31A7C
:104AC000013B24938023269ADB001A430023002510
:104AD000269209932DE6802212069446229B1E0000
:104AE000239B63441F0006E600232493EAE7C046A5
:104AF00000002440F0B54546DE464E465746E0B538
:104B000095B08B46904699461E9A1F9B0A901900B5
:104B10001000209DFFF763F8002800D0B0E11E9838
:104B20001F990122C74B5242FFF746F8002800D0D8
:104B300037E11E981F990122C34B5242FFF74AF8F2
:104B4000002800D0A7E01E981F990022BF4BFFF756
:104B500041F8002800D088E01E981F990022BC4B25
:104B6000FFF72AF8002800D07FE01E981F99002246
:104B70000023FFF721F8002800D0FAE000230B9370
:104B80008023229C229ADB001C401A4200D102E1C1
:104B9000092D00D87EE106A98C462C00172200239F
:104BA0003021093C62440133D154EF1A202B00D14B
:104BB00032E1A342F7D10022A44B069207931E983C
:104BC0001F99FFF735F80500FFF71AF802000B00F0
:104BD0001E981F99FEF77DFF069A079BFEF7A9FF17
:104BE00008900991FFF748F80600FFF705F8020062
:104BF0000B0008980999FEF76CFF0022954B08906E
:104C00000991FEF7E7FF002800D1D2E0013630001D
:104C1000FEF7F2FF069A079BFEF7D4FF002801D0AB
:104C200000260135AA46002F00D098E02800FEF7A4
:104C3000E7FF02000B001E981F99FEF74AFF854B05
:104C4000002206000F00FEF7B7FF0CAB9A460028C3
:104C500045D10022300039007E4BFEF7BBFF002813
:104C60003DD1EB073BD5013539E0229B4246049309
:104C7000219B594603930A981E9B1F9C0295009303
:104C800001944B46FFF704FD15B0F0BCBB46B2469D
:104C9000A946A046F0BD229B5B0767D403226E4B5A
:104CA00022990192039121990291009342464B4629
:104CB00059460A98FFF790FBE6E706AA94461723A1
:104CC000280063440A2101341E19FEF79FFC30318D
:104CD000280031700A21FEF799FC051E76D0202CA1
:104CE000EBD10323229A1340012B1DD1219B002BD2
:104CF0001AD00B9B002B00D0BBE0229A0C3313423E
:104D000000D0B6E0219BA34200D887E006AB9C46CA
:104D100017223023624404E02199013413558C4258
:104D200059D0202CF8D12024229B01940393219B5D
:104D300002935346B9E706AA944617230A2163440F
:104D4000300001341D19FEF789FC30312970300024
:104D50000A21013FFEF782FC092E46D90600202CCD
:104D6000E9D155460CAB20249A46B8E704223B4BC8
:104D700096E71E9A1F9B00200021FEF7AAFE012342
:104D80000B938023229C229ADB001E901F911C40D3
:104D90001A4200D0FCE60022314B06270692079308
:104DA0000DE7229B0393219B0293042301932D4B38
:104DB0007BE7002208980999264BFEF7FDFE0028A4
:104DC00000D02FE7002E4FD101362BE70323229A84
:104DD0001340012B68D0202CA6D00B9B002B1FD09A
:104DE0002D235246135501349EE75546202CB9D049
:104DF00030223B19002F4BD0172006A90134091887
:104E00000A55202CAED09C42F6D10CAA92462E22F6
:104E100051465C1CCA5462E72024CCE6202C83D087
:104E2000229B5B0708D4229B1B0700D47CE720232E
:104E300052461355013477E72B235246135501345C
:104E400072E7C046FFFFEFFFFFFFEF7F65CDCD416B
:104E500065CDCDC10000E03F04A10010FCA0001012
:104E600080842E410CA10010F30700D4DAE601364D
:104E7000D8E6219B013B2193A34200D946E7AAE74C
:104E8000229B0393219B029303230193084B0CE77E
:104E90002300BAE7074BEA009B185C681B682F00E9
:104EA0000693079400248AE6219B002B93D020E7E9
:104EB00008A10010B0A20010F0B54546DE465746E6
:104EC0004E46E0B5A1B01D002A9B90460B93D04AF8
:104ED000D04B83468A461A60002900D1A4E1002302
:104EE00028789946002800D1A6E1CB4B5E4609936D
:104EF000CA4B4C46D34647460D930AE0631C98467E
:104F000022003B005946B04744462878002800D18B
:104F1000CDE001352528F1D108239A46043B994676
:104F2000023B9846013B00229C460C942878691C61
:104F30000300203BDBB2102B03D8099C9B00E358F5
:104F40009F460300303B0C9C0A92092B7FD900231B
:104F500098462A2800D1C1E000239A462E2800D185
:104F600090E00300683BDBB2122B1ED8AC4A9B00DA
:104F7000D3589F4663460D001A43D7E743460D00BA
:104F80001A43D3E74B460D001A43CFE710230D0019
:104F90001A43CBE753460D001A43C7E780235B0053
:104FA0000A9A68781A430A9201310D0067280AD8D4
:104FB0002428A3D90300253BDBB2422B9ED80D9AAF
:104FC0009B00D3589F4601006939C9B20F2995D873
:104FD00001238B409C46934B994663464A461340B7
:104FE0000C9362464B461A4200D05EE20A2900D179
:104FF00024E1072982D10B9B02CB9846002900D1DE
:105000009BE121200A9A0243914610AB9C461F2245
:105010000F23404662440B959C46A04615000C9B0E
:105020000A9002E0202B0CD0110064460C402000B6
:105030003730092C00D807380133E8540A090F2902
:10504000F0D80C930A9B44460B9D984685E10023BB
:1050500098460A9B45469C4600E00131AB005B192F
:105060005B001D180878303D0300303B092BF4D954
:1050700063460A930023A8469A460D0001312E2864
:1050800000D06EE780200A9AC00002430A923022C4
:105090005242944668780B0084446246092A00D83C
:1050A0002EE12A2800D13DE10D00013159E7DA4611
:1050B000A146B346B846C84503D801235B424344E2
:1050C000994643464A4651460020D847200021B021
:1050D000F0BCBB46B246A946A046F0BD0B9B04CB34
:1050E0009046002A04DB68780B930D00013133E70A
:1050F0000A9A283802430A924246524268789046F9
:105100000D000B93013127E7672800D1C7E147283D
:1051100000D114E2452800D116E20A9A0721049230
:1051200042460B9B0392073352468B43190002926F
:105130000CC93000009201930B9122003B005946AC
:10514000FFF7A6FA0400E0E680239B0028E76878D2
:10515000682800D11BE280230A9A01311A430A927F
:1051600023E768786C2800D109E280230A9A5B0063
:105170001A430A92013118E7462800D18AE10A9AB7
:105180000721049242460B9B0392073352468B43FE
:10519000190002920CC93000009201930B91220079
:1051A0003B005946FFF7A6FC0400AEE6631C984698
:1051B00022003B0059462520B0474446A5E60B9BFC
:1051C00004330C93631C99460A9B9A0700D4E7E1C9
:1051D0000B9B2200187859463B00B0474346444495
:1051E000012B00D8B8E22B00B84625005F464C469C
:1051F000994622004346013439002020B047AC4292
:10520000F7D12C00BB464D4647460C9B0B937CE6E2
:10521000B94E00102867002014A10010A4A10010AE
:1052200058A1001041900000DC4B28789B460023D9
:105230009946002800D058E600243CE70B9B02CB9F
:1052400012930B789C4618005346002B00D09CE02C
:10525000002812D002235B420133994689444A4612
:105260000B008946110001E08B4203D05A780133CC
:10527000002AF9D149465B1A0C938023DB0099463A
:105280000A9A13400B934B461A4204D00C9B534589
:1052900001D953460C93022399460A9A13400A9364
:1052A0004B46134200D1B5E16346002B00D197E194
:1052B0000B9B002B00D14CE1D1460B1B9A462B00D7
:1052C000A1444D462200B9465F469B4609E04B4645
:1052D0003900541CB0475346185D002800D158E1EE
:1052E00022009542F3D15B46BB464F46A9461D00BE
:1052F0004C460A9B002B00D072E1129B0B9304E6F4
:1053000055460A9AA9004919490001330D18187821
:10531000303D010030390929F4D9AA460A921D000E
:10532000591C1EE60B9BA87804CB0235D143C91744
:105330000A4092460B93691C13E60A9B10211A003F
:105340008A43100011310843814680201A00C000B2
:1053500002401100034200D157E64B460822069353
:105360005346059208320392002204930C9B02924A
:10537000019318AB2200009359463B003000FFF721
:1053800073F8434604000B93BFE5002800D174E78F
:105390005346013B60E7622800D1DFE1582800D185
:1053A000ECE10A9980230A00DB001A4010000A0091
:1053B000194200D1BDE111239A430C920C9A80232B
:1053C00011009B0019408C461A4200D046E1802310
:1053D00011005B00194089460B9904310A911A4269
:1053E00000D08FE213005B0600D59EE113001B0680
:1053F00000D426E30B9B00229B5ED9175A184A4023
:1054000092B2D90F0B91002B00D177E2100010AAB5
:10541000944642461F23129252466344AA4614946D
:105420004D460400B946B0461F00139201E0202DFE
:105430000FD020000A21FEF711F901357E19303115
:10544000317020000A21FEF709F926000400092E18
:10545000EDD8129B46469846139B4F46A9465546A3
:105460009A46149C0C9B069343460593534604931B
:105470000A2303930B9B02934B46019318AB220024
:10548000009359463B003000FEF7EEFF0A9B0400F4
:105490000B933AE520230A9A1A430A926FE6802377
:1054A0000A9A1B011A430A9237E6782800D0AFE126
:1054B0000A9880230200DB001A4011000200184203
:1054C00000D1D0E20D239A43100003330A938023C6
:1054D00002009B001A409446184200D0ACE18023A1
:1054E00002005B001A4091460B9A04320C9218425B
:1054F00000D04AE2430600D493E20B9B1B7808934A
:10550000002B00D04BE110339843002900D146E135
:105510000023994643460593534604930A9B0690FD
:105520000393002302934B46019318AB2200009390
:1055300059463B003000FEF797FF040065E68023E4
:105540000A9A1B011A430A9220230A9A1A430A92C2
:10555000E3E50B1B9A460C9B99462B005D469B4648
:1055600022003B002900B04753460134185D002853
:10557000F6D14B460C935B46AB461D00B9E6C02303
:105580009B000A9AA8781A430A92E91C0DE5C023E9
:10559000F7E75D46BB464F46ABE6C046D543001035
:1055A0004346012B00D8D1E0631E4344B9461D0099
:1055B0005F46A2468B4622004B460134390020202C
:1055C000B047AC42F7D15D46BB464F46A146544674
:1055D0000B9B4A46187859463B004444B04714E6B2
:1055E0000C9BA146984500D887E64444E41A2B005A
:1055F000B84625005F464C46994622004346013492
:1056000039002020B047AC42F7D12C00BB464D46B4
:10561000474672E60C98804500D81CE243461A19AA
:10562000131A99462B004D46B9465F469B460C918E
:1056300022004B46013439002020B047AC42F7D15C
:1056400043460C9901330C930B785D469C46BB4650
:105650004F466046002800D02AE64EE607220B9B04
:1056600007339343013294469C4462460B920CCB21
:10567000D90F0A91110019435FD0D91711911091D8
:1056800051400E91119959400F910E980F99109A0F
:10569000119B801A99410E900F9110AA00239446F5
:1056A00042469946129252461F336344B046AA4678
:1056B0004E461494B9460E9C0F9D1F00139201E0B4
:1056C000202E10D0200029000A220023FEF704F823
:1056D000013630322B00BA550D0022000400002B99
:1056E000EED1092AECD8129B4F46B1464646984661
:1056F000139B0E940F9555469A46149C0C9B06934B
:1057000043460593534604930A2303930A9B02934B
:105710004B46019318AB2200009359463B003000E2
:10572000FEF7A2FE0400FFF7F0FB0B9B1B781A00AC
:1057300067E610239A430C9240E60023994600281E
:10574000DCD1002200230E920F93A6E70B9B2200D0
:10575000187859463B00B0474C4656E50A988023D6
:105760000200DB001A401100184200D15FE1020084
:105770000D239A430B3B10000A93A8E60A98802356
:105780000200DB001A4011000200184200D166E15D
:105790000D2320209A43033310430A9397E6612395
:1057A000820600D54123DBB20A3B0B93434610A986
:1057B0001F228C46129353466244AA4614941597AE
:1057C0004C468046B14617000A9E089D139308E098
:1057D0003033DBB201343B55B5420ED3202C0CD014
:1057E000050031002800FDF739FFCBB20929EFD9B8
:1057F0000B9A94466344DBB2ECE7129B4046984612
:10580000139B4E465546A1469A46149C159F81E629
:105810006F2800D037E10A990C230A009A438023AD
:1058200010000A00DB001A4011000A9A1A4200D048
:1058300021E108230A934AE60B9AFA3BFF3B073221
:105840009A4301339C46944463460B931368526811
:105850000893134312921A1E05D100231032994661
:105860009043002941D16122810600D54122D2B264
:105870000A3A0C924246002310A9139252468C46D3
:10588000994614921F330A9A6344AA4615941796B0
:105890004C469046B946089E1F00129D16900AE09D
:1058A0003032D2B2002301343A55AB4211D0202C11
:1058B00011D006000D004246002330002900FDF7FC
:1058C0000BFFD2B2092AEBD90C9B9C466244D2B2A0
:1058D000E8E7B045EBD9139B55469846149B4F46D5
:1058E0009A46A1461698179E159C43460593534623
:1058F00004930A9B06900393002308E7002800D036
:10590000B0E584E50B9B1B68DA0F1100002B00D17A
:1059100094E0DA179818504010AA914642461F2387
:10592000129252464B44A046AA4614970400B14630
:1059300065461F000B91139201E0202D0FD020002F
:105940000A21FDF78BFE01357E19303131702000C0
:105950000A21FDF783FE26000400092EEDD8129BD4
:10596000444698460B9BAC461900139B55464E4641
:105970009A46149F0C9B0291069343460593534607
:1059800004930A230393634677E50B9B1B680893F4
:10599000002B03D110339843002937D161238206AD
:1059A00000D54123DBB20A3B0B93434610A989463D
:1059B0001F22129353464A44AA46B146149415979F
:1059C000644680461700089D0A9E139308E0303312
:1059D000DBB201343B55B5420ED3202C0CD0050070
:1059E00031002800FDF73AFECBB20929EFD90B9A16
:1059F00094466344DBB2ECE7129B40469846139B07
:105A000055464E469A46A446159F149C4346059318
:105A1000534604930A9B0690039300230293634624
:105A200082E5030613D50B9B1B88089368E50200EB
:105A30000C239A430A3B10000A9348E5002899D1A9
:105A40006AE70B9B1B68D9175A184A40D9E40B9B8D
:105A50001B68089354E5030001330C93F9E52023F8
:105A60000A9A1A430A920C230A9A00219A43043391
:105A700010000A932BE50A9B0C9308230A930D232D
:105A80000C98984323E510230A9A9A430C926928AC
:105A90000AD10A9980230A00DB001A4010000A008C
:105AA000194200D18AE486E40A991C230A009A4329
:105AB000802310000A00DB001A4011000A9A1A42E3
:105AC00002D10A230A9302E50A230A93D7E7C046C4
:105AD00000B585B0039101210290009303481300A3
